:0400000066EF01F0B6
:1000080000C018F001C017F00CC016F00DC015F0B4
:100018001952010ED8A4000E016E01C019F001504A
:10002800000A15E11B2A1B50640AD8B41B6A1BC0BE
:1000380021F01C0E226E000E236E0BD9010E216ECC
:10004800010E226E1C0E236E000E246E72D881CF14
:100058001AF0F29018C000F017C001F016C00CF0AA
:0600680015C00DF01100AF
:06006E000000000012007A
:100074000F0E0C6E470E0D6E0D2EFED70C2EFCD7F8
:0600840000000000120064
:0A008A00210E0D6E0D2EFED71200A0
:1000940028BE02D0839E01D0838E28BC02D0839CCC
:1000A40001D0838C28BA02D0839A01D0838A28B8DD
:1000B40002D0839801D0838820B002D0838401D0F9
:1000C40083948386D2DF839628B602D0839E01D0A0
:1000D400838E28B402D0839C01D0838C28B202D0B2
:1000E400839A01D0838A28B002D0839801D0838870
:1000F40020B002D0838401D083948386B6DF8396B4
:0C01040020A002D0B5DF01D0BEDF120049
:10011000086A080E0C6E003408360450085ED8B029
:0E01200002D00826D89000360C2EF5D712001B
:0C012E00209027C028F0AFDF20801200D6
:10013A000FD0800E216E19D0C00E216E16D0940EEB
:10014A00216E13D0D40E216E10D0800E216E0DD0E8
:10015A002150010AEEE02150020AEEE02150030A82
:10016A00EEE02150040AEEE0F0D72204006E21509E
:10017A00002600C021F000C028F087DF2090256A01
:10018A0025502324E96E000E2420EA6EEE520BE07D
:10019A0025502324E96E000E2420EA6EEECF27F0C4
:0A01AA00C1DF252AEDD720801200E6
:1001B4000900F5CFE6FF0006FBE10106F9E11200B4
:1001C400959695949598959A959C959E83968394E7
:1001D400839E839C839A83984BDF4ADF49DF838A1B
:1001E4008388838642DF839643DF83863EDF83965C
:1001F4003FDF83863ADF83963BDF8398838635DF50
:10020400839636DF838631DF8396839A838E838653
:100214002CDF83962DDF839E8388838626DF839657
:100224008398838622DF839623DF83861EDF83966B
:10023400838883861ADF83961BDF8398838615DF82
:100244008396838E838C838A838883860EDF83964A
:060254000FDF2080120004
:10025A00246A030E245C0AE224502224E16E000E72
:10026A002320E26E200EE66E242AF3D7245022249D
:10027A00E16E000E2320E26EE66A24062450222450
:10028A00256E000E2320266E0A0E046E21C000F091
:10029A003ADF08C000F0300E002625C0E1FF26C074
:1002AA00E2FF00C0E6FF0A0E046E21C000F02BDF59
:1002BA0000C021F00050000A01E102D02406DED776
:0202CA00120020
:1002CC00196A1A6AF00E936E816AF19E81CF1AF048
:0C02DC00F290F286F28E70DFFFD7FFD7A1
:020000040030CA
:0D000100220F0EFF0181FF0FC00FE00F4026
:00000001FF
