:1000000016EF00F00000000000EF00F0000000001C
:0A0010000000000000000000F3D71C
:10001C000900F5CFE6FF0006FBE10106F9E112004D
:10002C003F0E156E060E166E5B0E176E4F0E186E8B
:10003C00660E196E6D0E1A6E7D0E1B6E070E1C6E03
:10004C007F0E1D6E670E1E6E1F6A206A216A946AEF
:10005C00956A150EE96E000EEA6E1F50E926D8B0AF
:10006C00EA2AEECF82FF010E836E340E0C6EF10E77
:10007C000D6E0D2EFED70C2EFCD700000000030ECB
:10008C00836E150EE96E000EEA6E2150E926D8B08B
:10009C00EA2AEECF82FF020E836E340E0C6EF10E46
:1000AC000D6E0D2EFED70C2EFCD700000000030E9B
:1000BC00836E202A2050190A0DE1206A1F50090A6C
:1000CC0008E12150050A02E1216A01D0212A1F6AA8
:0800DC0001D01F2ABED7FFD797
:020000040030CA
:0D000100220F0EFF0181FF0FC00FE00F4026
:00000001FF
