:0400000005EF02F016
:1000080000C018F001C017F00CC016F00DC015F0B4
:10001800F2A630D0F2A02ED01952010ED8A4000EAC
:10002800006E00C019F081CF20F0F290005201E17B
:1000380021D01F50010F006E016A000E0122640ECC
:10004800046E000E056E7AD908C000F009C001F0F0
:1000580000C01FF000C021F01A0E226E000E236EA1
:10006800A4D8010E216E010E226E1A0E236E000E08
:10007800246E27D918C000F017C001F016C00CF084
:0600880015C00DF011008F
:10008E000F0E0C6E470E0D6E0D2EFED70C2EFCD7DE
:06009E000000000012004A
:0600A40000000000120044
:0A00AA00210E0D6E0D2EFED7120080
:1000B40028BE02D0839E01D0838E28BC02D0839CAC
:1000C40001D0838C28BA02D0839A01D0838A28B8BD
:1000D40002D0839801D083881EB002D0838401D0DB
:1000E40083948386DDDF839628B602D0839E01D075
:1000F400838E28B402D0839C01D0838C28B202D092
:10010400839A01D0838A28B002D0839801D083884F
:100114001EB002D0838401D083948386C1DF83968A
:0C0124001EA002D0B2DF01D0BEDF12002E
:10013000086A080E0C6E003408360450085ED8B009
:0E01400002D00826D89000360C2EF5D71200FB
:10014E000134083609360450085E0550D8A0053C27
:10015E00095E003601360F0E0C6E01340836093674
:10016E00045000A006D0085E0550D8A0053C095EDC
:10017E0005D008260550D8B0053C092600360136B4
:10018E000C2EEBD700B006D0045008260550D8B080
:08019E00053C092600001200D7
:0C01A6001E9027C028F083DF1E8012008E
:1001B200246A030E245C0AE224502224E16E000E1B
:1001C2002320E26E200EE66E242AF3D72450222446
:1001D200E16E000E2320E26EE66A240624502224F9
:1001E200256E000E2320266E0A0E046E21C000F03A
:1001F2009EDF08C000F0300E002625C0E1FF26C0B9
:10020200E2FF00C0E6FF0A0E046E21C000F08FDF9D
:1002120000C021F00050000A01E102D02406DED71E
:020222001200C8
:10022400959695949598959A959C959E8396839486
:10023400839E839C839A839828DF27DF26DF838A23
:10024400838883862DDF839620DF838629DF839648
:100254001CDF838625DF839618DF8398838620DF5F
:10026400839613DF83861CDF8396839A838E83862B
:1002740017DF83960ADF839E8388838611DF839644
:10028400839883860DDF839600DF838609DF839658
:100294008388838605DF8396F8DE8398838600DF70
:1002A4008396838E838C838A83888386F9DE839600
:0602B400ECDE1E801200CA
:1002BA000900F5CFE6FF0006FBE10106F9E11200AD
:1002CA000FD0800E216E19D0C00E216E16D0940E5A
:1002DA00216E13D0D40E216E10D0800E216E0DD057
:1002EA002150010AEEE02150020AEEE02150030AF1
:1002FA00EEE02150040AEEE0F0D72204006E21500D
:10030A00002600C021F000C028F0CFDE1E90256A2A
:10031A0025502324E96E000E2420EA6EEE520BE0EB
:10032A0025502324E96E000E2420EA6EEECF27F032
:0A033A0035DF252AEDD71E801200E2
:100344000450000A08E10550000A05E1FF0E006EA2
:100354007F0E016E57D00D6A096A086A01500010B9
:10036400D8B4000C015005180A6E0ABE0D1E0B6AA3
:1003740005AE05D0041E051E042AD8B4052A01AE14
:1003840005D0001E011E002AD8B4012A0150051010
:100394000A6E0ABE10D0D9DE0BB020D00DAE000C10
:1003A400001E011E002AD8B4012A081E091E082AAC
:1003B400D8B4092A000C05AE0DD001BE07D00150F7
:1003C400096E0050086E016A006AE8D7016A006A83
:1003D400002A000C011E001E0B2ADDD7082AD8B4FF
:1003E400092A0450085CD8A4D9D70550095CD8A4BC
:1003F400D5D7096A086A002AD8B4012A01AECED733
:060404000000FF0C1200D5
:10040A00196AF19E81CF20F0F290F286F28E9388DB
:08041A001F6A03DFFFD7FFD7C3
:020000040030CA
:0D000100220F0EFF0181FF0FC00FE00F4026
:00000001FF
