:040000002FEF00F0EE
:1000080000C015F0F0A006D0D66AD76A8280D58ED7
:10001800F09016D0F2941650050805E3D66AD76A10
:10002800D58E162A0DD01650060A07E1F10ED66EA7
:10003800D80ED76ED58E162A03D08290010E166E72
:0600480015C000F01100DC
:10004E000900F5CFE6FF0006FBE10106F9E112001B
:10005E00010E166E946A826AD59CD59AD596D58471
:10006E00D582D580F090F086F294F28AF28EFFD788
:02007E00FFD7AA
:020000040030CA
:0D000100220F0EFF0181FF0FC00FE00F4026
:00000001FF
