:040000003EEF00F0DF
:100008000A0E826E060E0B6E130E0C6EAD0E0D6E82
:100018000D2EFED70C2EFCD70B2EFAD700000000B1
:10002800090E826E060E0B6E130E0C6EAD0E0D6E63
:100038000D2EFED70C2EFCD70B2EFAD70000000091
:10004800030E826E060E0B6E130E0C6EAD0E0D6E49
:100058000D2EFED70C2EFCD70B2EFAD70000000071
:04006800F2921100FF
:10006C000900F5CFE6FF0006FBE10106F9E11200FD
:10007C009380946A060E826EF28EF288F292F18C64
:04008C00FFD7FFD7C4
:020000040030CA
:0D000100220F0EFF0181FF0FC00FE00F4026
:00000001FF
