:1000000016EF00F00000000000EF00F0000000001C
:0A0010000000000000000000F3D71C
:10001C000900F5CFE6FF0006FBE10106F9E112004D
:10002C00010E156E800E166E946A826A1550000AC7
:10003C0002E1020E156E1650000A02E1400E166E19
:10004C001550080A04E1153615901632169E1650F6
:10005C001524826E153615901632169E030E0B6EF5
:10006C00080E0C6E770E0D6E0D2EFED70C2EFCD7D7
:10007C000B2EFAD7826A020E0B6E040E0C6EBA0EA1
:10008C000D6E0D2EFED70C2EFCD70B2EFAD70000C2
:04009C00CDD7FFD7E6
:020000040030CA
:0D000100220F0EFF0181FF0FC00FE00F4026
:00000001FF
