:040000001CEF00F001
:1000080000C015F0172A17500A0A02E1176A162AC3
:1000180016500A0AD8B4166AF29215C000F01100F8
:100028000900F5CFE6FF0006FBE10106F9E1120041
:10003800166A176A3F0E186E060E196E5B0E1A6E58
:100048004F0E1B6E660E1C6E6D0E1D6E7D0E1E6EA7
:10005800070E1F6E7F0E206E6F0E216E926A806AE9
:10006800010E936E956A836AF28EF288F292F18C91
:10007800F19E020E806E180EE96E000EEA6E1750A1
:10008800E926000E17BEFF0EEA22EECF83FF340EDC
:100098000C6EF10E0D6E0D2EFED70C2EFCD7000047
:1000A8000000010E806E180EE96E000EEA6E165002
:1000B800E926000E16BEFF0EEA22EECF83FF340EAD
:1000C8000C6EF10E0D6E0D2EFED70C2EFCD7000017
:0600D8000000CFD7FFD7A6
:020000040030CA
:0D000100220F0EFF0181FF0FC00FE00F4026
:00000001FF
