:0400000065EF00F0B8
:1000080000C019F001C018F00BC017F00CC016F0B2
:100018000DC015F01A5224E01A6A020E026E025040
:1000280004081DE302500708006E016A000E015A19
:100038001B0E0024E96E000E0120EA6EEECF82FF4F
:10004800020E0B6E040E0C6EBA0E0D6E0D2EFED740
:100058000C2EFCD70B2EFAD70000022AE0D71DD0B1
:10006800026A0250070819E31B0EE96E000EEA6ED9
:100078000250E926D8B0EA2AEECF82FF020E0B6EB4
:10008800040E0C6EBA0E0D6E0D2EFED70C2EFCD77C
:100098000B2EFAD70000022AE4D7F29219C000F01A
:1000A80018C001F017C00BF016C00CF015C00DF009
:0200B800110035
:1000BA000900F5CFE6FF0006FBE10106F9E11200AF
:1000CA00010E1A6E090E1B6E0C0E1C6E060E1D6EAC
:1000DA00030E1E6E090E1F6E0C0E206E060E216E8A
:1000EA00030E226E946A22C082FF020E0B6E040E69
:1000FA000C6EBA0E0D6E0D2EFED70C2EFCD70B2EE3
:10010A00FAD7000021C082FF020E0B6E040E0C6E9D
:10011A00BA0E0D6E0D2EFED70C2EFCD70B2EFAD76B
:0E012A000000F18CF292F288F28EFFD7FFD720
:020000040030CA
:0D000100220F0EFF0181FF0FC00FE00F4026
:00000001FF
