:0400000023EF00F0FA
:1000080000C015F0F2A810D0F2A20ED08172F292C0
:100018001750090A08E11650090A02E1166A01D0C8
:0E002800162A176A01D0172A15C000F0110021
:100036000900F5CFE6FF0006FBE10106F9E1120033
:10004600166A176A3F0E186E060E196E5B0E1A6E4A
:100056004F0E1B6E660E1C6E6D0E1D6E7D0E1E6E99
:10006600070E1F6E7F0E206E670E216EF19EF19CAD
:10007600F292F288F28E93809392946A956A180EA1
:10008600E96E000EEA6E1750E926D8B0EA2AEECFDE
:1000960082FF010E836E340E0C6EF10E0D6E0D2E68
:1000A600FED70C2EFCD700000000030E836E180E40
:1000B600E96E000EEA6E1650E926D8B0EA2AEECFAF
:1000C60082FF020E836E340E0C6EF10E0D6E0D2E37
:1000D600FED70C2EFCD700000000030E836ECFD790
:0200E600FFD742
:020000040030CA
:0D000100220F0EFF0181FF0FC00FE00F4026
:00000001FF
